{
  "contractName": "NFT",
  "abi": [
    {
      "inputs": [
        {
          "internalType": "address",
          "name": "marketPlaceAddress",
          "type": "address"
        }
      ],
      "stateMutability": "nonpayable",
      "type": "constructor"
    },
    {
      "anonymous": false,
      "inputs": [
        {
          "indexed": true,
          "internalType": "address",
          "name": "owner",
          "type": "address"
        },
        {
          "indexed": true,
          "internalType": "address",
          "name": "approved",
          "type": "address"
        },
        {
          "indexed": true,
          "internalType": "uint256",
          "name": "tokenId",
          "type": "uint256"
        }
      ],
      "name": "Approval",
      "type": "event"
    },
    {
      "anonymous": false,
      "inputs": [
        {
          "indexed": true,
          "internalType": "address",
          "name": "owner",
          "type": "address"
        },
        {
          "indexed": true,
          "internalType": "address",
          "name": "operator",
          "type": "address"
        },
        {
          "indexed": false,
          "internalType": "bool",
          "name": "approved",
          "type": "bool"
        }
      ],
      "name": "ApprovalForAll",
      "type": "event"
    },
    {
      "anonymous": false,
      "inputs": [
        {
          "indexed": true,
          "internalType": "address",
          "name": "from",
          "type": "address"
        },
        {
          "indexed": true,
          "internalType": "address",
          "name": "to",
          "type": "address"
        },
        {
          "indexed": true,
          "internalType": "uint256",
          "name": "tokenId",
          "type": "uint256"
        }
      ],
      "name": "Transfer",
      "type": "event"
    },
    {
      "inputs": [
        {
          "internalType": "address",
          "name": "to",
          "type": "address"
        },
        {
          "internalType": "uint256",
          "name": "tokenId",
          "type": "uint256"
        }
      ],
      "name": "approve",
      "outputs": [],
      "stateMutability": "nonpayable",
      "type": "function"
    },
    {
      "inputs": [
        {
          "internalType": "address",
          "name": "owner",
          "type": "address"
        }
      ],
      "name": "balanceOf",
      "outputs": [
        {
          "internalType": "uint256",
          "name": "",
          "type": "uint256"
        }
      ],
      "stateMutability": "view",
      "type": "function",
      "constant": true
    },
    {
      "inputs": [
        {
          "internalType": "uint256",
          "name": "tokenId",
          "type": "uint256"
        }
      ],
      "name": "getApproved",
      "outputs": [
        {
          "internalType": "address",
          "name": "",
          "type": "address"
        }
      ],
      "stateMutability": "view",
      "type": "function",
      "constant": true
    },
    {
      "inputs": [
        {
          "internalType": "address",
          "name": "owner",
          "type": "address"
        },
        {
          "internalType": "address",
          "name": "operator",
          "type": "address"
        }
      ],
      "name": "isApprovedForAll",
      "outputs": [
        {
          "internalType": "bool",
          "name": "",
          "type": "bool"
        }
      ],
      "stateMutability": "view",
      "type": "function",
      "constant": true
    },
    {
      "inputs": [],
      "name": "name",
      "outputs": [
        {
          "internalType": "string",
          "name": "",
          "type": "string"
        }
      ],
      "stateMutability": "view",
      "type": "function",
      "constant": true
    },
    {
      "inputs": [
        {
          "internalType": "uint256",
          "name": "tokenId",
          "type": "uint256"
        }
      ],
      "name": "ownerOf",
      "outputs": [
        {
          "internalType": "address",
          "name": "",
          "type": "address"
        }
      ],
      "stateMutability": "view",
      "type": "function",
      "constant": true
    },
    {
      "inputs": [
        {
          "internalType": "address",
          "name": "from",
          "type": "address"
        },
        {
          "internalType": "address",
          "name": "to",
          "type": "address"
        },
        {
          "internalType": "uint256",
          "name": "tokenId",
          "type": "uint256"
        }
      ],
      "name": "safeTransferFrom",
      "outputs": [],
      "stateMutability": "nonpayable",
      "type": "function"
    },
    {
      "inputs": [
        {
          "internalType": "address",
          "name": "from",
          "type": "address"
        },
        {
          "internalType": "address",
          "name": "to",
          "type": "address"
        },
        {
          "internalType": "uint256",
          "name": "tokenId",
          "type": "uint256"
        },
        {
          "internalType": "bytes",
          "name": "data",
          "type": "bytes"
        }
      ],
      "name": "safeTransferFrom",
      "outputs": [],
      "stateMutability": "nonpayable",
      "type": "function"
    },
    {
      "inputs": [
        {
          "internalType": "address",
          "name": "operator",
          "type": "address"
        },
        {
          "internalType": "bool",
          "name": "approved",
          "type": "bool"
        }
      ],
      "name": "setApprovalForAll",
      "outputs": [],
      "stateMutability": "nonpayable",
      "type": "function"
    },
    {
      "inputs": [
        {
          "internalType": "bytes4",
          "name": "interfaceId",
          "type": "bytes4"
        }
      ],
      "name": "supportsInterface",
      "outputs": [
        {
          "internalType": "bool",
          "name": "",
          "type": "bool"
        }
      ],
      "stateMutability": "view",
      "type": "function",
      "constant": true
    },
    {
      "inputs": [],
      "name": "symbol",
      "outputs": [
        {
          "internalType": "string",
          "name": "",
          "type": "string"
        }
      ],
      "stateMutability": "view",
      "type": "function",
      "constant": true
    },
    {
      "inputs": [
        {
          "internalType": "uint256",
          "name": "tokenId",
          "type": "uint256"
        }
      ],
      "name": "tokenURI",
      "outputs": [
        {
          "internalType": "string",
          "name": "",
          "type": "string"
        }
      ],
      "stateMutability": "view",
      "type": "function",
      "constant": true
    },
    {
      "inputs": [
        {
          "internalType": "address",
          "name": "from",
          "type": "address"
        },
        {
          "internalType": "address",
          "name": "to",
          "type": "address"
        },
        {
          "internalType": "uint256",
          "name": "tokenId",
          "type": "uint256"
        }
      ],
      "name": "transferFrom",
      "outputs": [],
      "stateMutability": "nonpayable",
      "type": "function"
    },
    {
      "inputs": [
        {
          "internalType": "string",
          "name": "tokenURI",
          "type": "string"
        }
      ],
      "name": "createToken",
      "outputs": [
        {
          "internalType": "uint256",
          "name": "newItemId",
          "type": "uint256"
        }
      ],
      "stateMutability": "nonpayable",
      "type": "function"
    }
  ],
  "bytecode": "0x60806040523480156200001157600080fd5b5060405162002bb238038062002bb283398181016040528101906200003791906200025f565b6040518060400160405280600981526020017f4e465420546f6b656e00000000000000000000000000000000000000000000008152506040518060400160405280600481526020017f4d455454000000000000000000000000000000000000000000000000000000008152508160009080519060200190620000bb92919062000145565b508060019080519060200190620000d492919062000145565b5050503373ffffffffffffffffffffffffffffffffffffffff16600960009054906101000a9050505080600860006101000a81548173ffffffffffffffffffffffffffffffffffffffff021916908373ffffffffffffffffffffffffffffffffffffffff16021790555050620002f6565b8280546200015390620002c0565b90600052602060002090601f016020900481019282620001775760008555620001c3565b82601f106200019257805160ff1916838001178555620001c3565b82800160010185558215620001c3579182015b82811115620001c2578251825591602001919060010190620001a5565b5b509050620001d29190620001d6565b5090565b5b80821115620001f1576000816000905550600101620001d7565b5090565b600080fd5b600073ffffffffffffffffffffffffffffffffffffffff82169050919050565b60006200022782620001fa565b9050919050565b62000239816200021a565b81146200024557600080fd5b50565b60008151905062000259816200022e565b92915050565b600060208284031215620002785762000277620001f5565b5b6000620002888482850162000248565b91505092915050565b7f4e487b7100000000000000000000000000000000000000000000000000000000600052602260045260246000fd5b60006002820490506001821680620002d957607f821691505b60208210811415620002f057620002ef62000291565b5b50919050565b6128ac80620003066000396000f3fe608060405234801561001057600080fd5b50600436106100ea5760003560e01c80636352211e1161008c578063a22cb46511610066578063a22cb4651461026f578063b88d4fde1461028b578063c87b56dd146102a7578063e985e9c5146102d7576100ea565b80636352211e146101f157806370a082311461022157806395d89b4114610251576100ea565b8063095ea7b3116100c8578063095ea7b31461016d57806323b872dd1461018957806342842e0e146101a557806345576f94146101c1576100ea565b806301ffc9a7146100ef57806306fdde031461011f578063081812fc1461013d575b600080fd5b6101096004803603810190610104919061188f565b610307565b60405161011691906118d7565b60405180910390f35b6101276103e9565b604051610134919061198b565b60405180910390f35b610157600480360381019061015291906119e3565b61047b565b6040516101649190611a51565b60405180910390f35b61018760048036038101906101829190611a98565b6104c1565b005b6101a3600480360381019061019e9190611ad8565b6105d9565b005b6101bf60048036038101906101ba9190611ad8565b610639565b005b6101db60048036038101906101d69190611c60565b610659565b6040516101e89190611cb8565b60405180910390f35b61020b600480360381019061020691906119e3565b6106b7565b6040516102189190611a51565b60405180910390f35b61023b60048036038101906102369190611cd3565b610769565b6040516102489190611cb8565b60405180910390f35b610259610821565b604051610266919061198b565b60405180910390f35b61028960048036038101906102849190611d2c565b6108b3565b005b6102a560048036038101906102a09190611e0d565b6108c9565b005b6102c160048036038101906102bc91906119e3565b61092b565b6040516102ce919061198b565b60405180910390f35b6102f160048036038101906102ec9190611e90565b610a3e565b6040516102fe91906118d7565b60405180910390f35b60007f80ac58cd000000000000000000000000000000000000000000000000000000007bffffffffffffffffffffffffffffffffffffffffffffffffffffffff1916827bffffffffffffffffffffffffffffffffffffffffffffffffffffffff191614806103d257507f5b5e139f000000000000000000000000000000000000000000000000000000007bffffffffffffffffffffffffffffffffffffffffffffffffffffffff1916827bffffffffffffffffffffffffffffffffffffffffffffffffffffffff1916145b806103e257506103e182610ad2565b5b9050919050565b6060600080546103f890611eff565b80601f016020809104026020016040519081016040528092919081815260200182805461042490611eff565b80156104715780601f1061044657610100808354040283529160200191610471565b820191906000526020600020905b81548152906001019060200180831161045457829003601f168201915b5050505050905090565b600061048682610b3c565b6004600083815260200190815260200160002060009054906101000a900473ffffffffffffffffffffffffffffffffffffffff169050919050565b60006104cc826106b7565b90508073ffffffffffffffffffffffffffffffffffffffff168373ffffffffffffffffffffffffffffffffffffffff16141561053d576040517f08c379a000000000000000000000000000000000000000000000000000000000815260040161053490611fa3565b60405180910390fd5b8073ffffffffffffffffffffffffffffffffffffffff1661055c610b87565b73ffffffffffffffffffffffffffffffffffffffff16148061058b575061058a81610585610b87565b610a3e565b5b6105ca576040517f08c379a00000000000000000000000000000000000000000000000000000000081526004016105c190612035565b60405180910390fd5b6105d48383610b8f565b505050565b6105ea6105e4610b87565b82610c48565b610629576040517f08c379a0000000000000000000000000000000000000000000000000000000008152600401610620906120c7565b60405180910390fd5b610634838383610cdd565b505050565b610654838383604051806020016040528060008152506108c9565b505050565b60006106656007610f44565b61066f6007610f5a565b905061067b3382610f68565b6106858183611142565b6106b2600860009054906101000a900473ffffffffffffffffffffffffffffffffffffffff1660016108b3565b919050565b6000806002600084815260200190815260200160002060009054906101000a900473ffffffffffffffffffffffffffffffffffffffff169050600073ffffffffffffffffffffffffffffffffffffffff168173ffffffffffffffffffffffffffffffffffffffff161415610760576040517f08c379a000000000000000000000000000000000000000000000000000000000815260040161075790612133565b60405180910390fd5b80915050919050565b60008073ffffffffffffffffffffffffffffffffffffffff168273ffffffffffffffffffffffffffffffffffffffff1614156107da576040517f08c379a00000000000000000000000000000000000000000000000000000000081526004016107d1906121c5565b60405180910390fd5b600360008373ffffffffffffffffffffffffffffffffffffffff1673ffffffffffffffffffffffffffffffffffffffff168152602001908152602001600020549050919050565b60606001805461083090611eff565b80601f016020809104026020016040519081016040528092919081815260200182805461085c90611eff565b80156108a95780601f1061087e576101008083540402835291602001916108a9565b820191906000526020600020905b81548152906001019060200180831161088c57829003601f168201915b5050505050905090565b6108c56108be610b87565b83836111b6565b5050565b6108da6108d4610b87565b83610c48565b610919576040517f08c379a0000000000000000000000000000000000000000000000000000000008152600401610910906120c7565b60405180910390fd5b61092584848484611323565b50505050565b606061093682610b3c565b600060066000848152602001908152602001600020805461095690611eff565b80601f016020809104026020016040519081016040528092919081815260200182805461098290611eff565b80156109cf5780601f106109a4576101008083540402835291602001916109cf565b820191906000526020600020905b8154815290600101906020018083116109b257829003601f168201915b5050505050905060006109e061137f565b90506000815114156109f6578192505050610a39565b600082511115610a2b578082604051602001610a13929190612221565b60405160208183030381529060405292505050610a39565b610a3484611396565b925050505b919050565b6000600560008473ffffffffffffffffffffffffffffffffffffffff1673ffffffffffffffffffffffffffffffffffffffff16815260200190815260200160002060008373ffffffffffffffffffffffffffffffffffffffff1673ffffffffffffffffffffffffffffffffffffffff16815260200190815260200160002060009054906101000a900460ff16905092915050565b60007f01ffc9a7000000000000000000000000000000000000000000000000000000007bffffffffffffffffffffffffffffffffffffffffffffffffffffffff1916827bffffffffffffffffffffffffffffffffffffffffffffffffffffffff1916149050919050565b610b45816113fe565b610b84576040517f08c379a0000000000000000000000000000000000000000000000000000000008152600401610b7b90612133565b60405180910390fd5b50565b600033905090565b816004600083815260200190815260200160002060006101000a81548173ffffffffffffffffffffffffffffffffffffffff021916908373ffffffffffffffffffffffffffffffffffffffff160217905550808273ffffffffffffffffffffffffffffffffffffffff16610c02836106b7565b73ffffffffffffffffffffffffffffffffffffffff167f8c5be1e5ebec7d5bd14f71427d1e84f3dd0314c0f7b2291e5b200ac8c7c3b92560405160405180910390a45050565b600080610c54836106b7565b90508073ffffffffffffffffffffffffffffffffffffffff168473ffffffffffffffffffffffffffffffffffffffff161480610c965750610c958185610a3e565b5b80610cd457508373ffffffffffffffffffffffffffffffffffffffff16610cbc8461047b565b73ffffffffffffffffffffffffffffffffffffffff16145b91505092915050565b8273ffffffffffffffffffffffffffffffffffffffff16610cfd826106b7565b73ffffffffffffffffffffffffffffffffffffffff1614610d53576040517f08c379a0000000000000000000000000000000000000000000000000000000008152600401610d4a906122b7565b60405180910390fd5b600073ffffffffffffffffffffffffffffffffffffffff168273ffffffffffffffffffffffffffffffffffffffff161415610dc3576040517f08c379a0000000000000000000000000000000000000000000000000000000008152600401610dba90612349565b60405180910390fd5b610dce83838361146a565b610dd9600082610b8f565b6001600360008573ffffffffffffffffffffffffffffffffffffffff1673ffffffffffffffffffffffffffffffffffffffff1681526020019081526020016000206000828254610e299190612398565b925050819055506001600360008473ffffffffffffffffffffffffffffffffffffffff1673ffffffffffffffffffffffffffffffffffffffff1681526020019081526020016000206000828254610e8091906123cc565b92505081905550816002600083815260200190815260200160002060006101000a81548173ffffffffffffffffffffffffffffffffffffffff021916908373ffffffffffffffffffffffffffffffffffffffff160217905550808273ffffffffffffffffffffffffffffffffffffffff168473ffffffffffffffffffffffffffffffffffffffff167fddf252ad1be2c89b69c2b068fc378daa952ba7f163c4a11628f55a4df523b3ef60405160405180910390a4610f3f83838361146f565b505050565b6001816000016000828254019250508190555050565b600081600001549050919050565b600073ffffffffffffffffffffffffffffffffffffffff168273ffffffffffffffffffffffffffffffffffffffff161415610fd8576040517f08c379a0000000000000000000000000000000000000000000000000000000008152600401610fcf9061246e565b60405180910390fd5b610fe1816113fe565b15611021576040517f08c379a0000000000000000000000000000000000000000000000000000000008152600401611018906124da565b60405180910390fd5b61102d6000838361146a565b6001600360008473ffffffffffffffffffffffffffffffffffffffff1673ffffffffffffffffffffffffffffffffffffffff168152602001908152602001600020600082825461107d91906123cc565b92505081905550816002600083815260200190815260200160002060006101000a81548173ffffffffffffffffffffffffffffffffffffffff021916908373ffffffffffffffffffffffffffffffffffffffff160217905550808273ffffffffffffffffffffffffffffffffffffffff16600073ffffffffffffffffffffffffffffffffffffffff167fddf252ad1be2c89b69c2b068fc378daa952ba7f163c4a11628f55a4df523b3ef60405160405180910390a461113e6000838361146f565b5050565b61114b826113fe565b61118a576040517f08c379a00000000000000000000000000000000000000000000000000000000081526004016111819061256c565b60405180910390fd5b806006600084815260200190815260200160002090805190602001906111b1929190611780565b505050565b8173ffffffffffffffffffffffffffffffffffffffff168373ffffffffffffffffffffffffffffffffffffffff161415611225576040517f08c379a000000000000000000000000000000000000000000000000000000000815260040161121c906125d8565b60405180910390fd5b80600560008573ffffffffffffffffffffffffffffffffffffffff1673ffffffffffffffffffffffffffffffffffffffff16815260200190815260200160002060008473ffffffffffffffffffffffffffffffffffffffff1673ffffffffffffffffffffffffffffffffffffffff16815260200190815260200160002060006101000a81548160ff0219169083151502179055508173ffffffffffffffffffffffffffffffffffffffff168373ffffffffffffffffffffffffffffffffffffffff167f17307eab39ab6107e8899845ad3d59bd9653f200f220920489ca2b5937696c318360405161131691906118d7565b60405180910390a3505050565b61132e848484610cdd565b61133a84848484611474565b611379576040517f08c379a00000000000000000000000000000000000000000000000000000000081526004016113709061266a565b60405180910390fd5b50505050565b606060405180602001604052806000815250905090565b60606113a182610b3c565b60006113ab61137f565b905060008151116113cb57604051806020016040528060008152506113f6565b806113d5846115fc565b6040516020016113e6929190612221565b6040516020818303038152906040525b915050919050565b60008073ffffffffffffffffffffffffffffffffffffffff166002600084815260200190815260200160002060009054906101000a900473ffffffffffffffffffffffffffffffffffffffff1673ffffffffffffffffffffffffffffffffffffffff1614159050919050565b505050565b505050565b60006114958473ffffffffffffffffffffffffffffffffffffffff1661175d565b156115ef578373ffffffffffffffffffffffffffffffffffffffff1663150b7a026114be610b87565b8786866040518563ffffffff1660e01b81526004016114e094939291906126df565b6020604051808303816000875af192505050801561151c57506040513d601f19601f820116820180604052508101906115199190612740565b60015b61159f573d806000811461154c576040519150601f19603f3d011682016040523d82523d6000602084013e611551565b606091505b50600081511415611597576040517f08c379a000000000000000000000000000000000000000000000000000000000815260040161158e9061266a565b60405180910390fd5b805181602001fd5b63150b7a0260e01b7bffffffffffffffffffffffffffffffffffffffffffffffffffffffff1916817bffffffffffffffffffffffffffffffffffffffffffffffffffffffff1916149150506115f4565b600190505b949350505050565b60606000821415611644576040518060400160405280600181526020017f30000000000000000000000000000000000000000000000000000000000000008152509050611758565b600082905060005b6000821461167657808061165f9061276d565b915050600a8261166f91906127e5565b915061164c565b60008167ffffffffffffffff81111561169257611691611b35565b5b6040519080825280601f01601f1916602001820160405280156116c45781602001600182028036833780820191505090505b5090505b60008514611751576001826116dd9190612398565b9150600a856116ec9190612816565b60306116f891906123cc565b60f81b81838151811061170e5761170d612847565b5b60200101907effffffffffffffffffffffffffffffffffffffffffffffffffffffffffffff1916908160001a905350600a8561174a91906127e5565b94506116c8565b8093505050505b919050565b6000808273ffffffffffffffffffffffffffffffffffffffff163b119050919050565b82805461178c90611eff565b90600052602060002090601f0160209004810192826117ae57600085556117f5565b82601f106117c757805160ff19168380011785556117f5565b828001600101855582156117f5579182015b828111156117f45782518255916020019190600101906117d9565b5b5090506118029190611806565b5090565b5b8082111561181f576000816000905550600101611807565b5090565b6000604051905090565b600080fd5b600080fd5b60007fffffffff0000000000000000000000000000000000000000000000000000000082169050919050565b61186c81611837565b811461187757600080fd5b50565b60008135905061188981611863565b92915050565b6000602082840312156118a5576118a461182d565b5b60006118b38482850161187a565b91505092915050565b60008115159050919050565b6118d1816118bc565b82525050565b60006020820190506118ec60008301846118c8565b92915050565b600081519050919050565b600082825260208201905092915050565b60005b8381101561192c578082015181840152602081019050611911565b8381111561193b576000848401525b50505050565b6000601f19601f8301169050919050565b600061195d826118f2565b61196781856118fd565b935061197781856020860161190e565b61198081611941565b840191505092915050565b600060208201905081810360008301526119a58184611952565b905092915050565b6000819050919050565b6119c0816119ad565b81146119cb57600080fd5b50565b6000813590506119dd816119b7565b92915050565b6000602082840312156119f9576119f861182d565b5b6000611a07848285016119ce565b91505092915050565b600073ffffffffffffffffffffffffffffffffffffffff82169050919050565b6000611a3b82611a10565b9050919050565b611a4b81611a30565b82525050565b6000602082019050611a666000830184611a42565b92915050565b611a7581611a30565b8114611a8057600080fd5b50565b600081359050611a9281611a6c565b92915050565b60008060408385031215611aaf57611aae61182d565b5b6000611abd85828601611a83565b9250506020611ace858286016119ce565b9150509250929050565b600080600060608486031215611af157611af061182d565b5b6000611aff86828701611a83565b9350506020611b1086828701611a83565b9250506040611b21868287016119ce565b9150509250925092565b600080fd5b600080fd5b7f4e487b7100000000000000000000000000000000000000000000000000000000600052604160045260246000fd5b611b6d82611941565b810181811067ffffffffffffffff82111715611b8c57611b8b611b35565b5b80604052505050565b6000611b9f611823565b9050611bab8282611b64565b919050565b600067ffffffffffffffff821115611bcb57611bca611b35565b5b611bd482611941565b9050602081019050919050565b82818337600083830152505050565b6000611c03611bfe84611bb0565b611b95565b905082815260208101848484011115611c1f57611c1e611b30565b5b611c2a848285611be1565b509392505050565b600082601f830112611c4757611c46611b2b565b5b8135611c57848260208601611bf0565b91505092915050565b600060208284031215611c7657611c7561182d565b5b600082013567ffffffffffffffff811115611c9457611c93611832565b5b611ca084828501611c32565b91505092915050565b611cb2816119ad565b82525050565b6000602082019050611ccd6000830184611ca9565b92915050565b600060208284031215611ce957611ce861182d565b5b6000611cf784828501611a83565b91505092915050565b611d09816118bc565b8114611d1457600080fd5b50565b600081359050611d2681611d00565b92915050565b60008060408385031215611d4357611d4261182d565b5b6000611d5185828601611a83565b9250506020611d6285828601611d17565b9150509250929050565b600067ffffffffffffffff821115611d8757611d86611b35565b5b611d9082611941565b9050602081019050919050565b6000611db0611dab84611d6c565b611b95565b905082815260208101848484011115611dcc57611dcb611b30565b5b611dd7848285611be1565b509392505050565b600082601f830112611df457611df3611b2b565b5b8135611e04848260208601611d9d565b91505092915050565b60008060008060808587031215611e2757611e2661182d565b5b6000611e3587828801611a83565b9450506020611e4687828801611a83565b9350506040611e57878288016119ce565b925050606085013567ffffffffffffffff811115611e7857611e77611832565b5b611e8487828801611ddf565b91505092959194509250565b60008060408385031215611ea757611ea661182d565b5b6000611eb585828601611a83565b9250506020611ec685828601611a83565b9150509250929050565b7f4e487b7100000000000000000000000000000000000000000000000000000000600052602260045260246000fd5b60006002820490506001821680611f1757607f821691505b60208210811415611f2b57611f2a611ed0565b5b50919050565b7f4552433732313a20617070726f76616c20746f2063757272656e74206f776e6560008201527f7200000000000000000000000000000000000000000000000000000000000000602082015250565b6000611f8d6021836118fd565b9150611f9882611f31565b604082019050919050565b60006020820190508181036000830152611fbc81611f80565b9050919050565b7f4552433732313a20617070726f76652063616c6c6572206973206e6f7420746f60008201527f6b656e206f776e6572206e6f7220617070726f76656420666f7220616c6c0000602082015250565b600061201f603e836118fd565b915061202a82611fc3565b604082019050919050565b6000602082019050818103600083015261204e81612012565b9050919050565b7f4552433732313a2063616c6c6572206973206e6f7420746f6b656e206f776e6560008201527f72206e6f7220617070726f766564000000000000000000000000000000000000602082015250565b60006120b1602e836118fd565b91506120bc82612055565b604082019050919050565b600060208201905081810360008301526120e0816120a4565b9050919050565b7f4552433732313a20696e76616c696420746f6b656e2049440000000000000000600082015250565b600061211d6018836118fd565b9150612128826120e7565b602082019050919050565b6000602082019050818103600083015261214c81612110565b9050919050565b7f4552433732313a2061646472657373207a65726f206973206e6f74206120766160008201527f6c6964206f776e65720000000000000000000000000000000000000000000000602082015250565b60006121af6029836118fd565b91506121ba82612153565b604082019050919050565b600060208201905081810360008301526121de816121a2565b9050919050565b600081905092915050565b60006121fb826118f2565b61220581856121e5565b935061221581856020860161190e565b80840191505092915050565b600061222d82856121f0565b915061223982846121f0565b91508190509392505050565b7f4552433732313a207472616e736665722066726f6d20696e636f72726563742060008201527f6f776e6572000000000000000000000000000000000000000000000000000000602082015250565b60006122a16025836118fd565b91506122ac82612245565b604082019050919050565b600060208201905081810360008301526122d081612294565b9050919050565b7f4552433732313a207472616e7366657220746f20746865207a65726f2061646460008201527f7265737300000000000000000000000000000000000000000000000000000000602082015250565b60006123336024836118fd565b915061233e826122d7565b604082019050919050565b6000602082019050818103600083015261236281612326565b9050919050565b7f4e487b7100000000000000000000000000000000000000000000000000000000600052601160045260246000fd5b60006123a3826119ad565b91506123ae836119ad565b9250828210156123c1576123c0612369565b5b828203905092915050565b60006123d7826119ad565b91506123e2836119ad565b9250827fffffffffffffffffffffffffffffffffffffffffffffffffffffffffffffffff0382111561241757612416612369565b5b828201905092915050565b7f4552433732313a206d696e7420746f20746865207a65726f2061646472657373600082015250565b60006124586020836118fd565b915061246382612422565b602082019050919050565b600060208201905081810360008301526124878161244b565b9050919050565b7f4552433732313a20746f6b656e20616c7265616479206d696e74656400000000600082015250565b60006124c4601c836118fd565b91506124cf8261248e565b602082019050919050565b600060208201905081810360008301526124f3816124b7565b9050919050565b7f45524337323155524953746f726167653a2055524920736574206f66206e6f6e60008201527f6578697374656e7420746f6b656e000000000000000000000000000000000000602082015250565b6000612556602e836118fd565b9150612561826124fa565b604082019050919050565b6000602082019050818103600083015261258581612549565b9050919050565b7f4552433732313a20617070726f766520746f2063616c6c657200000000000000600082015250565b60006125c26019836118fd565b91506125cd8261258c565b602082019050919050565b600060208201905081810360008301526125f1816125b5565b9050919050565b7f4552433732313a207472616e7366657220746f206e6f6e20455243373231526560008201527f63656976657220696d706c656d656e7465720000000000000000000000000000602082015250565b60006126546032836118fd565b915061265f826125f8565b604082019050919050565b6000602082019050818103600083015261268381612647565b9050919050565b600081519050919050565b600082825260208201905092915050565b60006126b18261268a565b6126bb8185612695565b93506126cb81856020860161190e565b6126d481611941565b840191505092915050565b60006080820190506126f46000830187611a42565b6127016020830186611a42565b61270e6040830185611ca9565b818103606083015261272081846126a6565b905095945050505050565b60008151905061273a81611863565b92915050565b6000602082840312156127565761275561182d565b5b60006127648482850161272b565b91505092915050565b6000612778826119ad565b91507fffffffffffffffffffffffffffffffffffffffffffffffffffffffffffffffff8214156127ab576127aa612369565b5b600182019050919050565b7f4e487b7100000000000000000000000000000000000000000000000000000000600052601260045260246000fd5b60006127f0826119ad565b91506127fb836119ad565b92508261280b5761280a6127b6565b5b828204905092915050565b6000612821826119ad565b915061282c836119ad565b92508261283c5761283b6127b6565b5b828206905092915050565b7f4e487b7100000000000000000000000000000000000000000000000000000000600052603260045260246000fdfea2646970667358221220c42ed6d09200ac96642dac5f0499cfa051833d52e54abd89f9c98e8657bbac7164736f6c634300080b0033",
  "immutableReferences": {},
  "source": "// SPDX-License-Identifier: MIT\r\npragma solidity ^0.8.0;\r\n\r\nimport \"@openzeppelin/contracts/token/ERC721/ERC721.sol\";\r\nimport \"@openzeppelin/contracts/token/ERC721/extensions/ERC721URIStorage.sol\";\r\nimport \"@openzeppelin/contracts/utils/Counters.sol\";\r\n\r\ncontract NFT is ERC721URIStorage{\r\n    using Counters for Counters.Counter;\r\n    Counters.Counter private _tokenIDs;\r\n    address private contractAddress;\r\n    address private owner;\r\n    modifier onlyOwner(){\r\n        require(msg.sender == owner, \"untrusted message sender\");\r\n        _;\r\n    }\r\n\r\n    constructor(address marketPlaceAddress) ERC721(\"NFT Token\", \"METT\"){\r\n        owner == msg.sender;\r\n        contractAddress = marketPlaceAddress;\r\n    }\r\n\r\n    function createToken(string memory tokenURI) public returns (uint256 newItemId){\r\n        _tokenIDs.increment();\r\n        newItemId = _tokenIDs.current();\r\n        _mint(msg.sender, newItemId);\r\n        _setTokenURI(newItemId, tokenURI);\r\n        setApprovalForAll(contractAddress, true);\r\n    }\r\n}",
  "sourcePath": "d:\\VS Projects\\My NFT MarketPlace\\nft-marketplace\\contracts\\NFT.sol",
  "compiler": {
    "name": "solc",
    "version": "0.8.11+commit.d7f03943.Emscripten.clang"
  },
  "schemaVersion": "3.4.5",
  "updatedAt": "2022-09-20T23:27:06.814Z",
  "networkType": "ethereum",
  "devdoc": {
    "kind": "dev",
    "methods": {
      "approve(address,uint256)": {
        "details": "See {IERC721-approve}."
      },
      "balanceOf(address)": {
        "details": "See {IERC721-balanceOf}."
      },
      "getApproved(uint256)": {
        "details": "See {IERC721-getApproved}."
      },
      "isApprovedForAll(address,address)": {
        "details": "See {IERC721-isApprovedForAll}."
      },
      "name()": {
        "details": "See {IERC721Metadata-name}."
      },
      "ownerOf(uint256)": {
        "details": "See {IERC721-ownerOf}."
      },
      "safeTransferFrom(address,address,uint256)": {
        "details": "See {IERC721-safeTransferFrom}."
      },
      "safeTransferFrom(address,address,uint256,bytes)": {
        "details": "See {IERC721-safeTransferFrom}."
      },
      "setApprovalForAll(address,bool)": {
        "details": "See {IERC721-setApprovalForAll}."
      },
      "supportsInterface(bytes4)": {
        "details": "See {IERC165-supportsInterface}."
      },
      "symbol()": {
        "details": "See {IERC721Metadata-symbol}."
      },
      "tokenURI(uint256)": {
        "details": "See {IERC721Metadata-tokenURI}."
      },
      "transferFrom(address,address,uint256)": {
        "details": "See {IERC721-transferFrom}."
      }
    },
    "version": 1
  },
  "userdoc": {
    "kind": "user",
    "methods": {},
    "version": 1
  }
}