{
  "contractName": "NFTMarket",
  "abi": [
    {
      "inputs": [],
      "stateMutability": "nonpayable",
      "type": "constructor"
    },
    {
      "anonymous": false,
      "inputs": [
        {
          "indexed": true,
          "internalType": "uint256",
          "name": "itemID",
          "type": "uint256"
        },
        {
          "indexed": true,
          "internalType": "address",
          "name": "nftContract",
          "type": "address"
        },
        {
          "indexed": true,
          "internalType": "uint256",
          "name": "tokenID",
          "type": "uint256"
        },
        {
          "indexed": false,
          "internalType": "address",
          "name": "seller",
          "type": "address"
        },
        {
          "indexed": false,
          "internalType": "address",
          "name": "owner",
          "type": "address"
        },
        {
          "indexed": false,
          "internalType": "uint256",
          "name": "price",
          "type": "uint256"
        },
        {
          "indexed": false,
          "internalType": "bool",
          "name": "sold",
          "type": "bool"
        }
      ],
      "name": "MarketItemCreated",
      "type": "event"
    },
    {
      "anonymous": false,
      "inputs": [
        {
          "indexed": true,
          "internalType": "uint256",
          "name": "itemID",
          "type": "uint256"
        },
        {
          "indexed": true,
          "internalType": "address",
          "name": "nftContract",
          "type": "address"
        },
        {
          "indexed": true,
          "internalType": "uint256",
          "name": "tokenID",
          "type": "uint256"
        },
        {
          "indexed": false,
          "internalType": "address",
          "name": "newOwner",
          "type": "address"
        },
        {
          "indexed": false,
          "internalType": "uint256",
          "name": "price",
          "type": "uint256"
        }
      ],
      "name": "MarketItemSold",
      "type": "event"
    },
    {
      "inputs": [],
      "name": "owner",
      "outputs": [
        {
          "internalType": "address payable",
          "name": "",
          "type": "address"
        }
      ],
      "stateMutability": "view",
      "type": "function",
      "constant": true
    },
    {
      "inputs": [],
      "name": "getListingPrice",
      "outputs": [
        {
          "internalType": "uint256",
          "name": "",
          "type": "uint256"
        }
      ],
      "stateMutability": "view",
      "type": "function",
      "constant": true
    },
    {
      "inputs": [
        {
          "internalType": "address",
          "name": "nftContract",
          "type": "address"
        },
        {
          "internalType": "uint256",
          "name": "tokenID",
          "type": "uint256"
        },
        {
          "internalType": "uint256",
          "name": "price",
          "type": "uint256"
        }
      ],
      "name": "createMarketItem",
      "outputs": [],
      "stateMutability": "payable",
      "type": "function",
      "payable": true
    },
    {
      "inputs": [
        {
          "internalType": "address",
          "name": "nftContract",
          "type": "address"
        },
        {
          "internalType": "uint256",
          "name": "itemID",
          "type": "uint256"
        }
      ],
      "name": "createMarketSale",
      "outputs": [],
      "stateMutability": "payable",
      "type": "function",
      "payable": true
    },
    {
      "inputs": [],
      "name": "fetchMarketItems",
      "outputs": [
        {
          "components": [
            {
              "internalType": "uint256",
              "name": "itemID",
              "type": "uint256"
            },
            {
              "internalType": "address",
              "name": "nftContract",
              "type": "address"
            },
            {
              "internalType": "uint256",
              "name": "tokenID",
              "type": "uint256"
            },
            {
              "internalType": "address payable",
              "name": "seller",
              "type": "address"
            },
            {
              "internalType": "address payable",
              "name": "owner",
              "type": "address"
            },
            {
              "internalType": "uint256",
              "name": "price",
              "type": "uint256"
            },
            {
              "internalType": "bool",
              "name": "sold",
              "type": "bool"
            },
            {
              "internalType": "bool",
              "name": "delivered",
              "type": "bool"
            }
          ],
          "internalType": "struct NFTMarket.MarketItem[]",
          "name": "",
          "type": "tuple[]"
        }
      ],
      "stateMutability": "view",
      "type": "function",
      "constant": true
    },
    {
      "inputs": [],
      "name": "fetchMyNFTs",
      "outputs": [
        {
          "components": [
            {
              "internalType": "uint256",
              "name": "itemID",
              "type": "uint256"
            },
            {
              "internalType": "address",
              "name": "nftContract",
              "type": "address"
            },
            {
              "internalType": "uint256",
              "name": "tokenID",
              "type": "uint256"
            },
            {
              "internalType": "address payable",
              "name": "seller",
              "type": "address"
            },
            {
              "internalType": "address payable",
              "name": "owner",
              "type": "address"
            },
            {
              "internalType": "uint256",
              "name": "price",
              "type": "uint256"
            },
            {
              "internalType": "bool",
              "name": "sold",
              "type": "bool"
            },
            {
              "internalType": "bool",
              "name": "delivered",
              "type": "bool"
            }
          ],
          "internalType": "struct NFTMarket.MarketItem[]",
          "name": "",
          "type": "tuple[]"
        }
      ],
      "stateMutability": "view",
      "type": "function",
      "constant": true
    },
    {
      "inputs": [],
      "name": "fetchItemsCreated",
      "outputs": [
        {
          "components": [
            {
              "internalType": "uint256",
              "name": "itemID",
              "type": "uint256"
            },
            {
              "internalType": "address",
              "name": "nftContract",
              "type": "address"
            },
            {
              "internalType": "uint256",
              "name": "tokenID",
              "type": "uint256"
            },
            {
              "internalType": "address payable",
              "name": "seller",
              "type": "address"
            },
            {
              "internalType": "address payable",
              "name": "owner",
              "type": "address"
            },
            {
              "internalType": "uint256",
              "name": "price",
              "type": "uint256"
            },
            {
              "internalType": "bool",
              "name": "sold",
              "type": "bool"
            },
            {
              "internalType": "bool",
              "name": "delivered",
              "type": "bool"
            }
          ],
          "internalType": "struct NFTMarket.MarketItem[]",
          "name": "",
          "type": "tuple[]"
        }
      ],
      "stateMutability": "view",
      "type": "function",
      "constant": true
    }
  ],
  "bytecode": "0x608060405266470de4df82000060045534801561001b57600080fd5b50600160008190555033600360006101000a81548173ffffffffffffffffffffffffffffffffffffffff021916908373ffffffffffffffffffffffffffffffffffffffff160217905550611af1806100746000396000f3fe6080604052600436106100705760003560e01c806358eb2df51161004e57806358eb2df5146100f65780638da5cb5b14610112578063c23b139e1461013d578063f064c32e1461015957610070565b80630f08efe01461007557806312e85585146100a0578063202e3740146100cb575b600080fd5b34801561008157600080fd5b5061008a610184565b60405161009791906114c6565b60405180910390f35b3480156100ac57600080fd5b506100b5610476565b6040516100c291906114f7565b60405180910390f35b3480156100d757600080fd5b506100e0610480565b6040516100ed91906114c6565b60405180910390f35b610110600480360381019061010b919061156f565b6107fe565b005b34801561011e57600080fd5b50610127610b8c565b60405161013491906115d1565b60405180910390f35b610157600480360381019061015291906115ec565b610bb2565b005b34801561016557600080fd5b5061016e610ebd565b60405161017b91906114c6565b60405180910390f35b60606000610192600161122f565b905060006101a0600261122f565b826101ab919061165b565b90506000808267ffffffffffffffff8111156101ca576101c961168f565b5b60405190808252806020026020018201604052801561020357816020015b6101f0611253565b8152602001906001900390816101e85790505b50905060005b8481101561046b57600073ffffffffffffffffffffffffffffffffffffffff166005600060018461023a91906116be565b815260200190815260200160002060040160009054906101000a900473ffffffffffffffffffffffffffffffffffffffff1673ffffffffffffffffffffffffffffffffffffffff1614156104585760006005600060018461029b91906116be565b815260200190815260200160002060000154905060006005600083815260200190815260200160002090508060405180610100016040529081600082015481526020016001820160009054906101000a900473ffffffffffffffffffffffffffffffffffffffff1673ffffffffffffffffffffffffffffffffffffffff1673ffffffffffffffffffffffffffffffffffffffff168152602001600282015481526020016003820160009054906101000a900473ffffffffffffffffffffffffffffffffffffffff1673ffffffffffffffffffffffffffffffffffffffff1673ffffffffffffffffffffffffffffffffffffffff1681526020016004820160009054906101000a900473ffffffffffffffffffffffffffffffffffffffff1673ffffffffffffffffffffffffffffffffffffffff1673ffffffffffffffffffffffffffffffffffffffff168152602001600582015481526020016006820160009054906101000a900460ff161515151581526020016006820160019054906101000a900460ff16151515158152505084868151811061043c5761043b611714565b5b6020026020010181905250848061045290611743565b95505050505b808061046390611743565b915050610209565b508094505050505090565b6000600454905090565b6060600061048e600161122f565b905060008060005b83811015610536573373ffffffffffffffffffffffffffffffffffffffff16600560006001846104c691906116be565b815260200190815260200160002060040160009054906101000a900473ffffffffffffffffffffffffffffffffffffffff1673ffffffffffffffffffffffffffffffffffffffff16141561052357828061051f90611743565b9350505b808061052e90611743565b915050610496565b5060008267ffffffffffffffff8111156105535761055261168f565b5b60405190808252806020026020018201604052801561058c57816020015b610579611253565b8152602001906001900390816105715790505b50905060005b848110156107f3573373ffffffffffffffffffffffffffffffffffffffff16600560006001846105c291906116be565b815260200190815260200160002060040160009054906101000a900473ffffffffffffffffffffffffffffffffffffffff1673ffffffffffffffffffffffffffffffffffffffff1614156107e05760006005600060018461062391906116be565b815260200190815260200160002060000154905060006005600083815260200190815260200160002090508060405180610100016040529081600082015481526020016001820160009054906101000a900473ffffffffffffffffffffffffffffffffffffffff1673ffffffffffffffffffffffffffffffffffffffff1673ffffffffffffffffffffffffffffffffffffffff168152602001600282015481526020016003820160009054906101000a900473ffffffffffffffffffffffffffffffffffffffff1673ffffffffffffffffffffffffffffffffffffffff1673ffffffffffffffffffffffffffffffffffffffff1681526020016004820160009054906101000a900473ffffffffffffffffffffffffffffffffffffffff1673ffffffffffffffffffffffffffffffffffffffff1673ffffffffffffffffffffffffffffffffffffffff168152602001600582015481526020016006820160009054906101000a900460ff161515151581526020016006820160019054906101000a900460ff1615151515815250508486815181106107c4576107c3611714565b5b602002602001018190525084806107da90611743565b95505050505b80806107eb90611743565b915050610592565b508094505050505090565b60026000541415610844576040517f08c379a000000000000000000000000000000000000000000000000000000000815260040161083b906117e9565b60405180910390fd5b60026000819055506000811161088f576040517f08c379a000000000000000000000000000000000000000000000000000000000815260040161088690611855565b60405180910390fd5b60045434146108d3576040517f08c379a00000000000000000000000000000000000000000000000000000000081526004016108ca906118e7565b60405180910390fd5b6108dd600161123d565b60006108e9600161122f565b90506040518061010001604052808281526020018573ffffffffffffffffffffffffffffffffffffffff1681526020018481526020013373ffffffffffffffffffffffffffffffffffffffff168152602001600073ffffffffffffffffffffffffffffffffffffffff16815260200183815260200160001515815260200160001515815250600560008381526020019081526020016000206000820151816000015560208201518160010160006101000a81548173ffffffffffffffffffffffffffffffffffffffff021916908373ffffffffffffffffffffffffffffffffffffffff1602179055506040820151816002015560608201518160030160006101000a81548173ffffffffffffffffffffffffffffffffffffffff021916908373ffffffffffffffffffffffffffffffffffffffff16021790555060808201518160040160006101000a81548173ffffffffffffffffffffffffffffffffffffffff021916908373ffffffffffffffffffffffffffffffffffffffff16021790555060a0820151816005015560c08201518160060160006101000a81548160ff02191690831515021790555060e08201518160060160016101000a81548160ff0219169083151502179055509050508373ffffffffffffffffffffffffffffffffffffffff166323b872dd3330866040518463ffffffff1660e01b8152600401610af493929190611916565b600060405180830381600087803b158015610b0e57600080fd5b505af1158015610b22573d6000803e3d6000fd5b50505050828473ffffffffffffffffffffffffffffffffffffffff16827f045dfa01dcba2b36aba1d3dc4a874f4b0c5d2fbeb8d2c4b34a7d88c8d8f929d1336000876000604051610b7694939291906119bb565b60405180910390a4506001600081905550505050565b600360009054906101000a900473ffffffffffffffffffffffffffffffffffffffff1681565b60026000541415610bf8576040517f08c379a0000000000000000000000000000000000000000000000000000000008152600401610bef906117e9565b60405180910390fd5b6002600081905550600060056000838152602001908152602001600020600501549050600060056000848152602001908152602001600020600201549050813414610c78576040517f08c379a0000000000000000000000000000000000000000000000000000000008152600401610c6f90611a72565b60405180910390fd5b6005600084815260200190815260200160002060030160009054906101000a900473ffffffffffffffffffffffffffffffffffffffff1673ffffffffffffffffffffffffffffffffffffffff166108fc349081150290604051600060405180830381858888f19350505050158015610cf4573d6000803e3d6000fd5b508373ffffffffffffffffffffffffffffffffffffffff166323b872dd3033846040518463ffffffff1660e01b8152600401610d3293929190611916565b600060405180830381600087803b158015610d4c57600080fd5b505af1158015610d60573d6000803e3d6000fd5b50505050336005600085815260200190815260200160002060040160006101000a81548173ffffffffffffffffffffffffffffffffffffffff021916908373ffffffffffffffffffffffffffffffffffffffff16021790555060016005600085815260200190815260200160002060060160006101000a81548160ff021916908315150217905550610df2600261123d565b600360009054906101000a900473ffffffffffffffffffffffffffffffffffffffff1673ffffffffffffffffffffffffffffffffffffffff166108fc6004549081150290604051600060405180830381858888f19350505050158015610e5c573d6000803e3d6000fd5b50808473ffffffffffffffffffffffffffffffffffffffff16847f9789d8d6748e7f3e6c12fe6b244e2765b7e805f6b4b65a2474cad0ca8e7884083386604051610ea7929190611a92565b60405180910390a4505060016000819055505050565b60606000610ecb600161122f565b905060008060005b83811015610f73573373ffffffffffffffffffffffffffffffffffffffff1660056000600184610f0391906116be565b815260200190815260200160002060030160009054906101000a900473ffffffffffffffffffffffffffffffffffffffff1673ffffffffffffffffffffffffffffffffffffffff161415610f60578280610f5c90611743565b9350505b8080610f6b90611743565b915050610ed3565b5060008267ffffffffffffffff811115610f9057610f8f61168f565b5b604051908082528060200260200182016040528015610fc957816020015b610fb6611253565b815260200190600190039081610fae5790505b50905060005b84811015611224573373ffffffffffffffffffffffffffffffffffffffff1660056000600184610fff91906116be565b815260200190815260200160002060030160009054906101000a900473ffffffffffffffffffffffffffffffffffffffff1673ffffffffffffffffffffffffffffffffffffffff1614156112115760006005600083815260200190815260200160002060000154905060006005600083815260200190815260200160002090508060405180610100016040529081600082015481526020016001820160009054906101000a900473ffffffffffffffffffffffffffffffffffffffff1673ffffffffffffffffffffffffffffffffffffffff1673ffffffffffffffffffffffffffffffffffffffff168152602001600282015481526020016003820160009054906101000a900473ffffffffffffffffffffffffffffffffffffffff1673ffffffffffffffffffffffffffffffffffffffff1673ffffffffffffffffffffffffffffffffffffffff1681526020016004820160009054906101000a900473ffffffffffffffffffffffffffffffffffffffff1673ffffffffffffffffffffffffffffffffffffffff1673ffffffffffffffffffffffffffffffffffffffff168152602001600582015481526020016006820160009054906101000a900460ff161515151581526020016006820160019054906101000a900460ff1615151515815250508486815181106111f5576111f4611714565b5b6020026020010181905250848061120b90611743565b95505050505b808061121c90611743565b915050610fcf565b508094505050505090565b600081600001549050919050565b6001816000016000828254019250508190555050565b60405180610100016040528060008152602001600073ffffffffffffffffffffffffffffffffffffffff16815260200160008152602001600073ffffffffffffffffffffffffffffffffffffffff168152602001600073ffffffffffffffffffffffffffffffffffffffff168152602001600081526020016000151581526020016000151581525090565b600081519050919050565b600082825260208201905092915050565b6000819050602082019050919050565b6000819050919050565b61131d8161130a565b82525050565b600073ffffffffffffffffffffffffffffffffffffffff82169050919050565b600061134e82611323565b9050919050565b61135e81611343565b82525050565b600061136f82611323565b9050919050565b61137f81611364565b82525050565b60008115159050919050565b61139a81611385565b82525050565b610100820160008201516113b76000850182611314565b5060208201516113ca6020850182611355565b5060408201516113dd6040850182611314565b5060608201516113f06060850182611376565b5060808201516114036080850182611376565b5060a082015161141660a0850182611314565b5060c082015161142960c0850182611391565b5060e082015161143c60e0850182611391565b50505050565b600061144e83836113a0565b6101008301905092915050565b6000602082019050919050565b6000611473826112de565b61147d81856112e9565b9350611488836112fa565b8060005b838110156114b95781516114a08882611442565b97506114ab8361145b565b92505060018101905061148c565b5085935050505092915050565b600060208201905081810360008301526114e08184611468565b905092915050565b6114f18161130a565b82525050565b600060208201905061150c60008301846114e8565b92915050565b600080fd5b61152081611343565b811461152b57600080fd5b50565b60008135905061153d81611517565b92915050565b61154c8161130a565b811461155757600080fd5b50565b60008135905061156981611543565b92915050565b60008060006060848603121561158857611587611512565b5b60006115968682870161152e565b93505060206115a78682870161155a565b92505060406115b88682870161155a565b9150509250925092565b6115cb81611364565b82525050565b60006020820190506115e660008301846115c2565b92915050565b6000806040838503121561160357611602611512565b5b60006116118582860161152e565b92505060206116228582860161155a565b9150509250929050565b7f4e487b7100000000000000000000000000000000000000000000000000000000600052601160045260246000fd5b60006116668261130a565b91506116718361130a565b9250828210156116845761168361162c565b5b828203905092915050565b7f4e487b7100000000000000000000000000000000000000000000000000000000600052604160045260246000fd5b60006116c98261130a565b91506116d48361130a565b9250827fffffffffffffffffffffffffffffffffffffffffffffffffffffffffffffffff038211156117095761170861162c565b5b828201905092915050565b7f4e487b7100000000000000000000000000000000000000000000000000000000600052603260045260246000fd5b600061174e8261130a565b91507fffffffffffffffffffffffffffffffffffffffffffffffffffffffffffffffff8214156117815761178061162c565b5b600182019050919050565b600082825260208201905092915050565b7f5265656e7472616e637947756172643a207265656e7472616e742063616c6c00600082015250565b60006117d3601f8361178c565b91506117de8261179d565b602082019050919050565b60006020820190508181036000830152611802816117c6565b9050919050565b7f50726963652063616e6e6f742062652073657420746f20667265650000000000600082015250565b600061183f601b8361178c565b915061184a82611809565b602082019050919050565b6000602082019050818103600083015261186e81611832565b9050919050565b7f5072696365206d75737420626520657175616c20746f206c697374696e67207060008201527f7269636500000000000000000000000000000000000000000000000000000000602082015250565b60006118d160248361178c565b91506118dc82611875565b604082019050919050565b60006020820190508181036000830152611900816118c4565b9050919050565b61191081611343565b82525050565b600060608201905061192b6000830186611907565b6119386020830185611907565b61194560408301846114e8565b949350505050565b6000819050919050565b600061197261196d61196884611323565b61194d565b611323565b9050919050565b600061198482611957565b9050919050565b600061199682611979565b9050919050565b6119a68161198b565b82525050565b6119b581611385565b82525050565b60006080820190506119d0600083018761199d565b6119dd602083018661199d565b6119ea60408301856114e8565b6119f760608301846119ac565b95945050505050565b7f506c65617365205375626d69742061736b696e6720707269636520696e206f7260008201527f64657220746f20636f6d706c6574652074686520707572636861736500000000602082015250565b6000611a5c603c8361178c565b9150611a6782611a00565b604082019050919050565b60006020820190508181036000830152611a8b81611a4f565b9050919050565b6000604082019050611aa7600083018561199d565b611ab460208301846114e8565b939250505056fea2646970667358221220dbc68c4aed312019d44e8a14f30f6ab4127da4ee50d6096567f3d92cf8e6754e64736f6c634300080b0033",
  "immutableReferences": {},
  "source": "// SPDX-License-Identifier: MIT\r\npragma solidity ^0.8.0;\r\n\r\nimport \"@openzeppelin/contracts/token/ERC721/ERC721.sol\";\r\nimport \"@openzeppelin/contracts/token/ERC721/extensions/ERC721URIStorage.sol\";\r\nimport \"@openzeppelin/contracts/utils/Counters.sol\";\r\nimport \"@openzeppelin/contracts/security/ReentrancyGuard.sol\";\r\n\r\ncontract NFTMarket is ReentrancyGuard{\r\n    using Counters for Counters.Counter;\r\n    Counters.Counter private _itemIDs;\r\n    Counters.Counter private _itemsSold;\r\n    address payable public owner;\r\n    uint256 listingPrice = 0.02 ether;\r\n\r\n    struct MarketItem {\r\n        uint256 itemID;\r\n        address nftContract;\r\n        uint256 tokenID;\r\n        address payable seller;\r\n        address payable owner;\r\n        uint256 price;\r\n        bool sold;\r\n        bool delivered;\r\n    }\r\n\r\n    mapping(uint256 => MarketItem) private _marketItems;\r\n\r\n    event MarketItemCreated (\r\n        uint indexed itemID,\r\n        address indexed nftContract,\r\n        uint256 indexed tokenID,\r\n        address seller,\r\n        address owner,\r\n        uint256 price,\r\n        bool sold\r\n    );\r\n\r\n    event MarketItemSold (\r\n        uint indexed itemID,\r\n        address indexed nftContract,\r\n        uint256 indexed tokenID,\r\n        address newOwner,\r\n        uint256 price\r\n    );\r\n\r\n    constructor(){\r\n        owner = payable(msg.sender);\r\n    }\r\n\r\n    function getListingPrice() public view returns (uint256){\r\n        return listingPrice;\r\n    }\r\n\r\n    // Lists a new item on the NFT Marketplace\r\n    function createMarketItem(address nftContract, uint256 tokenID, uint256 price) public payable nonReentrant{\r\n        require(price > 0, \"Price cannot be set to free\");\r\n        require(msg.value == listingPrice, \"Price must be equal to listing price\");\r\n\r\n        _itemIDs.increment();\r\n        uint256 itemID = _itemIDs.current();\r\n\r\n        _marketItems[itemID] = MarketItem(itemID, nftContract, tokenID, payable(msg.sender), payable(address(0)), price, false, false);\r\n        IERC721(nftContract).transferFrom(msg.sender, address(this), tokenID);\r\n\r\n        emit MarketItemCreated(itemID, nftContract, tokenID, payable(msg.sender), payable(address(0)), price, false);\r\n    }\r\n\r\n    // Allows an account to purchase an NFT from the marketplace\r\n    function createMarketSale(address nftContract, uint256 itemID) public payable nonReentrant{\r\n        uint price = _marketItems[itemID].price;\r\n        uint tokenID = _marketItems[itemID].tokenID;\r\n        require(msg.value == price, \"Please Submit asking price in order to complete the purchase\");\r\n\r\n        _marketItems[itemID].seller.transfer(msg.value);\r\n        IERC721(nftContract).transferFrom(address(this), msg.sender, tokenID);\r\n        _marketItems[itemID].owner = payable(msg.sender);\r\n        _marketItems[itemID].sold = true;\r\n        _itemsSold.increment();\r\n        payable(owner).transfer(listingPrice);\r\n        emit MarketItemSold(itemID, nftContract, tokenID, payable(msg.sender), price);\r\n    }\r\n\r\n    // Returns all NFTs on marketplace\r\n    function fetchMarketItems() public view returns (MarketItem[] memory){\r\n        uint totalItems = _itemIDs.current();\r\n        uint unsold = totalItems - _itemsSold.current();\r\n        uint currentIndex = 0;\r\n\r\n        MarketItem[] memory items = new MarketItem[](unsold);\r\n        for (uint i = 0; i < totalItems; i++){\r\n            if (_marketItems[i + 1].owner == address(0)){\r\n                uint currentItemID = _marketItems[i + 1].itemID;\r\n                MarketItem storage currentItem = _marketItems[currentItemID];\r\n                items[currentIndex] = currentItem;\r\n                currentIndex++;\r\n            }\r\n        }\r\n\r\n        return items;\r\n    }\r\n\r\n    // Fetches all NFTs bought from the sender from this marketplace\r\n    function fetchMyNFTs() public view returns (MarketItem[] memory){\r\n        uint totalItemCount = _itemIDs.current();\r\n        uint itemCount = 0;\r\n        uint currentIndex = 0;\r\n\r\n        for (uint i = 0; i < totalItemCount; i++){\r\n            if (_marketItems[i + 1].owner == msg.sender){\r\n                itemCount++;\r\n            }\r\n        }\r\n\r\n        MarketItem[] memory items = new MarketItem[](itemCount);\r\n         for (uint i = 0; i < totalItemCount; i++){\r\n            if (_marketItems[i + 1].owner == msg.sender){\r\n                uint currentItemID = _marketItems[i + 1].itemID;\r\n                MarketItem storage currentItem = _marketItems[currentItemID];\r\n                items[currentIndex] = currentItem;\r\n                currentIndex++;\r\n            }\r\n        }\r\n\r\n        return items;\r\n    }\r\n\r\n    // Fetches all NFTs created and listed to the marketplace by the sender\r\n    function fetchItemsCreated() public view returns (MarketItem[] memory){\r\n        uint totalItemCount = _itemIDs.current();\r\n        uint itemCount = 0;\r\n        uint currentIndex = 0;\r\n\r\n        for (uint i = 0; i < totalItemCount; i++){\r\n            if (_marketItems[i + 1].seller == msg.sender){\r\n                itemCount++;\r\n            }\r\n        }\r\n\r\n        MarketItem[] memory items = new MarketItem[](itemCount);\r\n        for (uint i = 0; i < totalItemCount; i++){\r\n            if (_marketItems[i + 1].seller == msg.sender){\r\n                uint currentItemID = _marketItems[i].itemID;\r\n                MarketItem storage currentItem = _marketItems[currentItemID];\r\n                items[currentIndex] = currentItem;\r\n                currentIndex++;\r\n            }\r\n        }\r\n\r\n        return items;\r\n    }\r\n}",
  "sourcePath": "d:\\VS Projects\\My NFT MarketPlace\\nft-marketplace\\contracts\\NFTMarket.sol",
  "compiler": {
    "name": "solc",
    "version": "0.8.11+commit.d7f03943.Emscripten.clang"
  },
  "schemaVersion": "3.4.5",
  "updatedAt": "2022-09-20T23:27:06.799Z",
  "networkType": "ethereum",
  "devdoc": {
    "kind": "dev",
    "methods": {},
    "version": 1
  },
  "userdoc": {
    "kind": "user",
    "methods": {},
    "version": 1
  }
}